{"abi":[{"type":"constructor","inputs":[{"name":"implementation","type":"address","internalType":"address"},{"name":"accessControl_","type":"address","internalType":"contract ISpoolAccessControl"},{"name":"actionManager_","type":"address","internalType":"contract IActionManager"},{"name":"guardManager_","type":"address","internalType":"contract IGuardManager"},{"name":"smartVaultRegistry_","type":"address","internalType":"contract ISmartVaultRegistry"},{"name":"assetGroupRegistry_","type":"address","internalType":"contract IAssetGroupRegistry"},{"name":"riskManager_","type":"address","internalType":"contract IRiskManager"}],"stateMutability":"nonpayable"},{"type":"function","name":"deploySmartVault","inputs":[{"name":"specification","type":"tuple","internalType":"struct SmartVaultSpecification","components":[{"name":"smartVaultName","type":"string","internalType":"string"},{"name":"svtSymbol","type":"string","internalType":"string"},{"name":"baseURI","type":"string","internalType":"string"},{"name":"assetGroupId","type":"uint256","internalType":"uint256"},{"name":"strategies","type":"address[]","internalType":"address[]"},{"name":"strategyAllocation","type":"uint256","internalType":"uint16a16"},{"name":"riskTolerance","type":"int8","internalType":"int8"},{"name":"riskProvider","type":"address","internalType":"address"},{"name":"allocationProvider","type":"address","internalType":"address"},{"name":"actions","type":"address[]","internalType":"contract IAction[]"},{"name":"actionRequestTypes","type":"uint8[]","internalType":"enum RequestType[]"},{"name":"guards","type":"tuple[][]","internalType":"struct GuardDefinition[][]","components":[{"name":"methodSignature","type":"string","internalType":"string"},{"name":"contractAddress","type":"address","internalType":"address"},{"name":"operator","type":"bytes2","internalType":"bytes2"},{"name":"expectedValue","type":"uint256","internalType":"uint256"},{"name":"methodParamTypes","type":"uint8[]","internalType":"enum GuardParamType[]"},{"name":"methodParamValues","type":"bytes[]","internalType":"bytes[]"}]},{"name":"guardRequestTypes","type":"uint8[]","internalType":"enum RequestType[]"},{"name":"managementFeePct","type":"uint16","internalType":"uint16"},{"name":"depositFeePct","type":"uint16","internalType":"uint16"},{"name":"performanceFeePct","type":"uint16","internalType":"uint16"},{"name":"allowRedeemFor","type":"bool","internalType":"bool"}]}],"outputs":[{"name":"","type":"address","internalType":"contract ISmartVault"}],"stateMutability":"nonpayable"},{"type":"function","name":"deploySmartVaultDeterministically","inputs":[{"name":"specification","type":"tuple","internalType":"struct SmartVaultSpecification","components":[{"name":"smartVaultName","type":"string","internalType":"string"},{"name":"svtSymbol","type":"string","internalType":"string"},{"name":"baseURI","type":"string","internalType":"string"},{"name":"assetGroupId","type":"uint256","internalType":"uint256"},{"name":"strategies","type":"address[]","internalType":"address[]"},{"name":"strategyAllocation","type":"uint256","internalType":"uint16a16"},{"name":"riskTolerance","type":"int8","internalType":"int8"},{"name":"riskProvider","type":"address","internalType":"address"},{"name":"allocationProvider","type":"address","internalType":"address"},{"name":"actions","type":"address[]","internalType":"contract IAction[]"},{"name":"actionRequestTypes","type":"uint8[]","internalType":"enum RequestType[]"},{"name":"guards","type":"tuple[][]","internalType":"struct GuardDefinition[][]","components":[{"name":"methodSignature","type":"string","internalType":"string"},{"name":"contractAddress","type":"address","internalType":"address"},{"name":"operator","type":"bytes2","internalType":"bytes2"},{"name":"expectedValue","type":"uint256","internalType":"uint256"},{"name":"methodParamTypes","type":"uint8[]","internalType":"enum GuardParamType[]"},{"name":"methodParamValues","type":"bytes[]","internalType":"bytes[]"}]},{"name":"guardRequestTypes","type":"uint8[]","internalType":"enum RequestType[]"},{"name":"managementFeePct","type":"uint16","internalType":"uint16"},{"name":"depositFeePct","type":"uint16","internalType":"uint16"},{"name":"performanceFeePct","type":"uint16","internalType":"uint16"},{"name":"allowRedeemFor","type":"bool","internalType":"bool"}]},{"name":"salt","type":"bytes32","internalType":"bytes32"}],"outputs":[{"name":"","type":"address","internalType":"contract ISmartVault"}],"stateMutability":"nonpayable"},{"type":"function","name":"implementation","inputs":[],"outputs":[{"name":"","type":"address","internalType":"address"}],"stateMutability":"view"},{"type":"function","name":"owner","inputs":[],"outputs":[{"name":"","type":"address","internalType":"address"}],"stateMutability":"view"},{"type":"function","name":"predictDeterministicAddress","inputs":[{"name":"specification","type":"tuple","internalType":"struct SmartVaultSpecification","components":[{"name":"smartVaultName","type":"string","internalType":"string"},{"name":"svtSymbol","type":"string","internalType":"string"},{"name":"baseURI","type":"string","internalType":"string"},{"name":"assetGroupId","type":"uint256","internalType":"uint256"},{"name":"strategies","type":"address[]","internalType":"address[]"},{"name":"strategyAllocation","type":"uint256","internalType":"uint16a16"},{"name":"riskTolerance","type":"int8","internalType":"int8"},{"name":"riskProvider","type":"address","internalType":"address"},{"name":"allocationProvider","type":"address","internalType":"address"},{"name":"actions","type":"address[]","internalType":"contract IAction[]"},{"name":"actionRequestTypes","type":"uint8[]","internalType":"enum RequestType[]"},{"name":"guards","type":"tuple[][]","internalType":"struct GuardDefinition[][]","components":[{"name":"methodSignature","type":"string","internalType":"string"},{"name":"contractAddress","type":"address","internalType":"address"},{"name":"operator","type":"bytes2","internalType":"bytes2"},{"name":"expectedValue","type":"uint256","internalType":"uint256"},{"name":"methodParamTypes","type":"uint8[]","internalType":"enum GuardParamType[]"},{"name":"methodParamValues","type":"bytes[]","internalType":"bytes[]"}]},{"name":"guardRequestTypes","type":"uint8[]","internalType":"enum RequestType[]"},{"name":"managementFeePct","type":"uint16","internalType":"uint16"},{"name":"depositFeePct","type":"uint16","internalType":"uint16"},{"name":"performanceFeePct","type":"uint16","internalType":"uint16"},{"name":"allowRedeemFor","type":"bool","internalType":"bool"}]},{"name":"salt","type":"bytes32","internalType":"bytes32"}],"outputs":[{"name":"","type":"address","internalType":"address"}],"stateMutability":"view"},{"type":"function","name":"renounceOwnership","inputs":[],"outputs":[],"stateMutability":"nonpayable"},{"type":"function","name":"transferOwnership","inputs":[{"name":"newOwner","type":"address","internalType":"address"}],"outputs":[],"stateMutability":"nonpayable"},{"type":"function","name":"upgradeTo","inputs":[{"name":"newImplementation","type":"address","internalType":"address"}],"outputs":[],"stateMutability":"nonpayable"},{"type":"event","name":"OwnershipTransferred","inputs":[{"name":"previousOwner","type":"address","indexed":true,"internalType":"address"},{"name":"newOwner","type":"address","indexed":true,"internalType":"address"}],"anonymous":false},{"type":"event","name":"SmartVaultDeployed","inputs":[{"name":"smartVault","type":"address","indexed":true,"internalType":"address"},{"name":"deployer","type":"address","indexed":true,"internalType":"address"}],"anonymous":false},{"type":"event","name":"Upgraded","inputs":[{"name":"implementation","type":"address","indexed":true,"internalType":"address"}],"anonymous":false},{"type":"error","name":"ConfigurationAddressZero","inputs":[]},{"type":"error","name":"DepositFeeTooLarge","inputs":[{"name":"depositFeePct","type":"uint256","internalType":"uint256"}]},{"type":"error","name":"InvalidStaticAllocation","inputs":[]},{"type":"error","name":"InvalidStrategy","inputs":[{"name":"address_","type":"address","internalType":"address"}]},{"type":"error","name":"InvalidStrategyAllocationsLength","inputs":[]},{"type":"error","name":"ManagementFeeTooLarge","inputs":[{"name":"mgmtFeePct","type":"uint256","internalType":"uint256"}]},{"type":"error","name":"MissingRole","inputs":[{"name":"role","type":"bytes32","internalType":"bytes32"},{"name":"account","type":"address","internalType":"address"}]},{"type":"error","name":"NotSameAssetGroup","inputs":[]},{"type":"error","name":"PerformanceFeeTooLarge","inputs":[{"name":"performanceFeePct","type":"uint256","internalType":"uint256"}]},{"type":"error","name":"SingleStrategyDynamicAllocation","inputs":[]},{"type":"error","name":"SmartVaultRegistrationNoStrategies","inputs":[]},{"type":"error","name":"StaticAllocationAndAllocationProviderSet","inputs":[]},{"type":"error","name":"StaticAllocationAndRiskProviderSet","inputs":[]},{"type":"error","name":"StaticAllocationAndRiskToleranceSet","inputs":[]},{"type":"error","name":"StrategiesNotUnique","inputs":[]},{"type":"error","name":"StrategyCapExceeded","inputs":[]}],"bytecode":{"object":"0x6101406040523480156200001257600080fd5b50604051620029ff380380620029ff8339810160408190526200003591620002c1565b858762000042336200019a565b6200004d81620001ea565b506001600160a01b038116620000765760405163bb0e4c3560e01b815260040160405180910390fd5b6001600160a01b039081166080528616620000a45760405163bb0e4c3560e01b815260040160405180910390fd5b6001600160a01b038516620000cc5760405163bb0e4c3560e01b815260040160405180910390fd5b6001600160a01b038416620000f45760405163bb0e4c3560e01b815260040160405180910390fd5b6001600160a01b0383166200011c5760405163bb0e4c3560e01b815260040160405180910390fd5b6001600160a01b038216620001445760405163bb0e4c3560e01b815260040160405180910390fd5b6001600160a01b0381166200016c5760405163bb0e4c3560e01b815260040160405180910390fd5b6001600160a01b0394851660a05292841660c05290831660e0528216610100521661012052506200036c9050565b600080546001600160a01b038381166001600160a01b0319831681178455604051919092169283917f8be0079c531659141344cd1fd0a4f28419497f9722a3daafe3b4186f6b6457e09190a35050565b62000200816200029960201b620004c81760201c565b620002775760405162461bcd60e51b815260206004820152603360248201527f5570677261646561626c65426561636f6e3a20696d706c656d656e746174696f60448201527f6e206973206e6f74206120636f6e747261637400000000000000000000000000606482015260840160405180910390fd5b600180546001600160a01b0319166001600160a01b0392909216919091179055565b6001600160a01b03163b151590565b6001600160a01b0381168114620002be57600080fd5b50565b600080600080600080600060e0888a031215620002dd57600080fd5b8751620002ea81620002a8565b6020890151909750620002fd81620002a8565b60408901519096506200031081620002a8565b60608901519095506200032381620002a8565b60808901519094506200033681620002a8565b60a08901519093506200034981620002a8565b60c08901519092506200035c81620002a8565b8091505092959891949750929550565b60805160a05160c05160e0516101005161012051612619620003e66000396000818161102b015281816110ce01528181611175015261121d015260006106ac015260006112bf01526000610eb301526000610e0b0152600081816105f0015281816108e601528181610da50152610fb301526126196000f3fe60806040523480156200001157600080fd5b5060043610620000935760003560e01c80638da5cb5b11620000625780638da5cb5b14620000fb578063cced1c51146200010d578063cd7b1c7a1462000124578063f2fde38b146200013b57600080fd5b80633659cfe614620000985780635c60da1b14620000b15780636fc3f5d514620000da578063715018a614620000f1575b600080fd5b620000af620000a9366004620014ac565b62000152565b005b6001546001600160a01b03165b6040516001600160a01b03909116815260200160405180910390f35b620000be620000eb366004620014ed565b6200019e565b620000af6200026c565b6000546001600160a01b0316620000be565b620000be6200011e3660046200152e565b62000284565b620000be620001353660046200152e565b62000371565b620000af6200014c366004620014ac565b62000445565b6200015c620004d7565b620001678162000533565b6040516001600160a01b038216907fbc7cd75a20ee27fd9adebab32041f755214dbc6bffa90cc0225b39da2e5c2d3b90600090a250565b60007fc9158e2d34f9a0db34fef00fedbaed1bda4297aec3cdbfaa7e9c5163546fc86d33620001ce8282620005ca565b620001d98462000693565b600030620001e78662000d07565b604051620001f59062001488565b620002029291906200159d565b604051809103906000f0801580156200021f573d6000803e3d6000fd5b5090506200022e818662000d80565b60405133906001600160a01b038316907f4b6fc311ac818259806f64049ebe6924e21a6b8e08a6b97fbf10baf7dd6f534d90600090a3949350505050565b62000276620004d7565b620002826000620013ff565b565b600060ff60f81b3083604051806020016200029f9062001488565b601f1982820381018352601f9091011660405230620002be8862000d07565b604051602001620002d19291906200159d565b60408051601f1981840301815290829052620002f19291602001620015e1565b604051602081830303815290604052805190602001206040516020016200034f94939291906001600160f81b031994909416845260609290921b6bffffffffffffffffffffffff191660018401526015830152603582015260550190565b6040516020818303038152906040528051906020012060001c90505b92915050565b60007fc9158e2d34f9a0db34fef00fedbaed1bda4297aec3cdbfaa7e9c5163546fc86d33620003a18282620005ca565b620003ac8562000693565b60008430620003bb8862000d07565b604051620003c99062001488565b620003d69291906200159d565b8190604051809103906000f5905080158015620003f7573d6000803e3d6000fd5b50905062000406818762000d80565b60405133906001600160a01b038316907f4b6fc311ac818259806f64049ebe6924e21a6b8e08a6b97fbf10baf7dd6f534d90600090a395945050505050565b6200044f620004d7565b6001600160a01b038116620004ba5760405162461bcd60e51b815260206004820152602660248201527f4f776e61626c653a206e6577206f776e657220697320746865207a65726f206160448201526564647265737360d01b60648201526084015b60405180910390fd5b620004c581620013ff565b50565b6001600160a01b03163b151590565b6000546001600160a01b03163314620002825760405162461bcd60e51b815260206004820181905260248201527f4f776e61626c653a2063616c6c6572206973206e6f7420746865206f776e65726044820152606401620004b1565b6001600160a01b0381163b620005a85760405162461bcd60e51b815260206004820152603360248201527f5570677261646561626c65426561636f6e3a20696d706c656d656e746174696f6044820152721b881a5cc81b9bdd08184818dbdb9d1c9858dd606a1b6064820152608401620004b1565b600180546001600160a01b0319166001600160a01b0392909216919091179055565b604051632474521560e21b8152600481018390526001600160a01b0382811660248301527f000000000000000000000000000000000000000000000000000000000000000016906391d1485490604401602060405180830381865afa15801562000638573d6000803e3d6000fd5b505050506040513d601f19601f820116820180604052508101906200065e919062001623565b6200068f576040516301d4003760e61b8152600481018390526001600160a01b0382166024820152604401620004b1565b5050565b604051637032e73760e11b8152606082013560048201527f00000000000000000000000000000000000000000000000000000000000000006001600160a01b03169063e065ce6e9060240160006040518083038186803b158015620006f757600080fd5b505afa1580156200070c573d6000803e3d6000fd5b506200072092505050608082018262001643565b9050600003620007435760405163951be16360e01b815260040160405180910390fd5b601062000754608083018362001643565b90501115620007765760405163ae9c5c5b60e01b815260040160405180910390fd5b60a0810135151560006200078e608084018462001643565b905060011480156200079e575081155b15620007bd576040516301d725b960e41b815260040160405180910390fd5b811562000873576000620007d9610100850160e08601620014ac565b6001600160a01b0316146200080157604051631329ae2b60e01b815260040160405180910390fd5b6200081360e0840160c0850162001697565b60000b156200083557604051632912b9d960e11b815260040160405180910390fd5b60006200084b61012085016101008601620014ac565b6001600160a01b031614620008735760405163ccdac46f60e01b815260040160405180910390fd5b60005b62000885608085018562001643565b905081101562000bcf578215620008dc57620008a660a0850135826200144f565b600003620008c75760405163a397f01960e01b815260040160405180910390fd5b620008d760a0850135826200144f565b820191505b6001600160a01b037f0000000000000000000000000000000000000000000000000000000000000000166391d148547f49e347583a7b9e7f325e8963ee1f94127eba81e401796874b5a22f7c8f9d45f76200093b608088018862001643565b858181106200094e576200094e620016bc565b9050602002016020810190620009659190620014ac565b6040516001600160e01b031960e085901b16815260048101929092526001600160a01b03166024820152604401602060405180830381865afa158015620009b0573d6000803e3d6000fd5b505050506040513d601f19601f82011682018060405250810190620009d6919062001623565b62000a3a57620009ea608085018562001643565b82818110620009fd57620009fd620016bc565b905060200201602081019062000a149190620014ac565b604051633ae252cd60e21b81526001600160a01b039091166004820152602401620004b1565b606084013562000a4e608086018662001643565b8381811062000a615762000a61620016bc565b905060200201602081019062000a789190620014ac565b6001600160a01b03166384ba89e36040518163ffffffff1660e01b8152600401602060405180830381865afa15801562000ab6573d6000803e3d6000fd5b505050506040513d601f19601f8201168201806040525081019062000adc9190620016d2565b1462000afb5760405163030f0dd360e11b815260040160405180910390fd5b600181015b62000b0f608086018662001643565b905081101562000bc55762000b28608086018662001643565b8281811062000b3b5762000b3b620016bc565b905060200201602081019062000b529190620014ac565b6001600160a01b031662000b6a608087018762001643565b8481811062000b7d5762000b7d620016bc565b905060200201602081019062000b949190620014ac565b6001600160a01b03160362000bbc57604051631cb9c6dd60e31b815260040160405180910390fd5b60010162000b00565b5060010162000876565b5081801562000be057506127108114155b1562000bff576040516318e200ab60e01b815260040160405180910390fd5b506101f4905062000c196101c083016101a08401620016ec565b61ffff16111562000c595762000c386101c082016101a08301620016ec565b604051632ad7996160e21b815261ffff9091166004820152602401620004b1565b6101f462000c706101e083016101c08401620016ec565b61ffff16111562000cb05762000c8f6101e082016101c08301620016ec565b604051631b948fe760e11b815261ffff9091166004820152602401620004b1565b61232862000cc761020083016101e08401620016ec565b61ffff161115620004c55762000ce661020082016101e08301620016ec565b60405163af603d4560e01b815261ffff9091166004820152602401620004b1565b606062000d15828062001712565b62000d24602085018562001712565b62000d33604087018762001712565b876060013560405160240162000d50979695949392919062001785565b60408051601f198184030181529190526020810180516001600160e01b0316631c5d2b4960e01b17905292915050565b604051630854da8360e21b81526001600160a01b0383811660048301523360248301527f000000000000000000000000000000000000000000000000000000000000000016906321536a0c90604401600060405180830381600087803b15801562000dea57600080fd5b505af115801562000dff573d6000803e3d6000fd5b50506001600160a01b037f0000000000000000000000000000000000000000000000000000000000000000169150637197028a90508362000e4561012085018562001643565b62000e5561014087018762001643565b6040518663ffffffff1660e01b815260040162000e7795949392919062001824565b600060405180830381600087803b15801562000e9257600080fd5b505af115801562000ea7573d6000803e3d6000fd5b50506001600160a01b037f0000000000000000000000000000000000000000000000000000000000000000169150633993059090508362000eed61016085018562001643565b62000efd61018087018762001643565b6040518663ffffffff1660e01b815260040162000f1f959493929190620019d0565b600060405180830381600087803b15801562000f3a57600080fd5b505af115801562000f4f573d6000803e3d6000fd5b5062000f68925050506102208201610200830162001b6f565b156200101257604051632f2ff15d60e01b81527f8175070940abf2fdc44d0ca002a58b0ee7538d3bf19eb0576843c4b91dd91b4560048201526001600160a01b0383811660248301527f00000000000000000000000000000000000000000000000000000000000000001690632f2ff15d90604401600060405180830381600087803b15801562000ff857600080fd5b505af11580156200100d573d6000803e3d6000fd5b505050505b60a08101356000819003620012bd576001600160a01b037f00000000000000000000000000000000000000000000000000000000000000001663d2d087148462001064610100860160e08701620014ac565b6040516001600160e01b031960e085901b1681526001600160a01b03928316600482015291166024820152604401600060405180830381600087803b158015620010ad57600080fd5b505af1158015620010c2573d6000803e3d6000fd5b50506001600160a01b037f000000000000000000000000000000000000000000000000000000000000000016915063df63ec6e9050846200110a60e0860160c0870162001697565b6040516001600160e01b031960e085901b1681526001600160a01b03909216600483015260000b6024820152604401600060405180830381600087803b1580156200115457600080fd5b505af115801562001169573d6000803e3d6000fd5b50506001600160a01b037f000000000000000000000000000000000000000000000000000000000000000016915063ece20e7a905084620011b361012086016101008701620014ac565b6040516001600160e01b031960e085901b1681526001600160a01b03928316600482015291166024820152604401600060405180830381600087803b158015620011fc57600080fd5b505af115801562001211573d6000803e3d6000fd5b50506001600160a01b037f000000000000000000000000000000000000000000000000000000000000000016915063bb427f5090508462001256608086018662001643565b6040518463ffffffff1660e01b8152600401620012769392919062001b8f565b602060405180830381865afa15801562001294573d6000803e3d6000fd5b505050506040513d601f19601f82011682018060405250810190620012ba9190620016d2565b90505b7f00000000000000000000000000000000000000000000000000000000000000006001600160a01b031663146c6743846040518060c001604052808660600135815260200186806080019062001314919062001643565b8080602002602001604051908101604052809392919081815260200183836020028082843760009201919091525050509082525060208101869052604001620013666101c088016101a08901620016ec565b61ffff168152602001620013836101e088016101c08901620016ec565b61ffff168152602001620013a061020088016101e08901620016ec565b61ffff168152506040518363ffffffff1660e01b8152600401620013c692919062001bef565b600060405180830381600087803b158015620013e157600080fd5b505af1158015620013f6573d6000803e3d6000fd5b50505050505050565b600080546001600160a01b038381166001600160a01b0319831681178455604051919092169283917f8be0079c531659141344cd1fd0a4f28419497f9722a3daafe3b4186f6b6457e09190a35050565b6000601082106200145f57600080fd5b6200146f60016201000062001cb3565b6200147c83601062001cc9565b84901c16905092915050565b6109008062001ce483390190565b6001600160a01b0381168114620004c557600080fd5b600060208284031215620014bf57600080fd5b8135620014cc8162001496565b9392505050565b60006102208284031215620014e757600080fd5b50919050565b6000602082840312156200150057600080fd5b813567ffffffffffffffff8111156200151857600080fd5b6200152684828501620014d3565b949350505050565b600080604083850312156200154257600080fd5b823567ffffffffffffffff8111156200155a57600080fd5b6200156885828601620014d3565b95602094909401359450505050565b60005b83811015620015945781810151838201526020016200157a565b50506000910152565b60018060a01b03831681526040602082015260008251806040840152620015cc81606085016020870162001577565b601f01601f1916919091016060019392505050565b60008351620015f581846020880162001577565b8351908301906200160b81836020880162001577565b01949350505050565b8015158114620004c557600080fd5b6000602082840312156200163657600080fd5b8151620014cc8162001614565b6000808335601e198436030181126200165b57600080fd5b83018035915067ffffffffffffffff8211156200167757600080fd5b6020019150600581901b36038213156200169057600080fd5b9250929050565b600060208284031215620016aa57600080fd5b81358060000b8114620014cc57600080fd5b634e487b7160e01b600052603260045260246000fd5b600060208284031215620016e557600080fd5b5051919050565b600060208284031215620016ff57600080fd5b813561ffff81168114620014cc57600080fd5b6000808335601e198436030181126200172a57600080fd5b83018035915067ffffffffffffffff8211156200174657600080fd5b6020019150368190038213156200169057600080fd5b81835281816020850137506000828201602090810191909152601f909101601f19169091010190565b6080815260006200179b60808301898b6200175c565b8281036020840152620017b081888a6200175c565b90508281036040840152620017c78186886200175c565b91505082606083015298975050505050505050565b818352600060208085019450826000805b86811015620018185782356005811062001805578283fd5b88529683019691830191600101620017ed565b50959695505050505050565b6001600160a01b03868116825260606020808401829052908301869052600091879160808501845b8981101562001877578435620018628162001496565b8416825293820193908201906001016200184c565b5085810360408701526200188d81888a620017dc565b9b9a5050505050505050505050565b6000808335601e19843603018112620018b457600080fd5b830160208101925035905067ffffffffffffffff811115620018d557600080fd5b8036038213156200169057600080fd5b6000808335601e19843603018112620018fd57600080fd5b830160208101925035905067ffffffffffffffff8111156200191e57600080fd5b8060051b36038213156200169057600080fd5b818352600060208085019450826000805b8681101562001818578235600981106200195a578283fd5b8852968301969183019160010162001942565b81835260006020808501808196508560051b810191508460005b87811015620019c3578284038952620019a182886200189c565b620019ae8682846200175c565b9a87019a955050509084019060010162001987565b5091979650505050505050565b6001600160a01b038681168252606060208084018290529083018690526000916080600588901b850181019290850189855b8a81101562001b4957878603607f1901835262001a20828d620018e5565b808852858801600582901b890187018360005b8481101562001b30578b8303601f1901845281353687900360be1901811262001a5b57600080fd5b860160c062001a6b82806200189c565b82875262001a7d83880182846200175c565b925050508b82013562001a908162001496565b8d16858d01526040828101356001600160f01b03198116811462001ab357600080fd5b6001600160f01b031916908601526060828101359086015262001ada6080830183620018e5565b868303608088015262001aef83828462001931565b9250505060a062001b0381840184620018e5565b93508683038288015262001b198385836200196d565b978e019796505050928b0192505060010162001a33565b5090995050509385019350509083019060010162001a02565b5050505050828103604084015262001b63818587620017dc565b98975050505050505050565b60006020828403121562001b8257600080fd5b8135620014cc8162001614565b6001600160a01b03848116825260406020808401829052908301849052600091859160608501845b8781101562001be257843562001bcd8162001496565b84168252938201939082019060010162001bb7565b5098975050505050505050565b6001600160a01b038381168252604060208084018290528451918401919091528381015160c0606085015280516101008501819052600093929182019084906101208701905b8083101562001c595783518616825292840192600192909201919084019062001c35565b5060408801516080880152606088015161ffff811660a08901529450608088015161ffff811660c0890152945060a088015161ffff811660e0890152945062001b63565b634e487b7160e01b600052601160045260246000fd5b818103818111156200036b576200036b62001c9d565b80820281158282048414176200036b576200036b62001c9d56fe60806040526040516109003803806109008339810160408190526100229161045b565b61002e82826000610035565b5050610585565b61003e83610100565b6040516001600160a01b038416907f1cf3b03a6cf19fa2baba4df148e9dcabedea7f8a5c07840e207e5c089be95d3e90600090a260008251118061007f5750805b156100fb576100f9836001600160a01b0316635c60da1b6040518163ffffffff1660e01b8152600401602060405180830381865afa1580156100c5573d6000803e3d6000fd5b505050506040513d601f19601f820116820180604052508101906100e9919061051b565b836102a360201b6100291760201c565b505b505050565b610113816102cf60201b6100551760201c565b6101725760405162461bcd60e51b815260206004820152602560248201527f455243313936373a206e657720626561636f6e206973206e6f74206120636f6e6044820152641d1c9858dd60da1b60648201526084015b60405180910390fd5b6101e6816001600160a01b0316635c60da1b6040518163ffffffff1660e01b8152600401602060405180830381865afa1580156101b3573d6000803e3d6000fd5b505050506040513d601f19601f820116820180604052508101906101d7919061051b565b6102cf60201b6100551760201c565b61024b5760405162461bcd60e51b815260206004820152603060248201527f455243313936373a20626561636f6e20696d706c656d656e746174696f6e206960448201526f1cc81b9bdd08184818dbdb9d1c9858dd60821b6064820152608401610169565b806102827fa3f0ad74e5423aebfd80d3ef4346578335a9a72aeaee59ff6cb3582b35133d5060001b6102de60201b6100641760201c565b80546001600160a01b0319166001600160a01b039290921691909117905550565b60606102c883836040518060600160405280602781526020016108d9602791396102e1565b9392505050565b6001600160a01b03163b151590565b90565b6060600080856001600160a01b0316856040516102fe9190610536565b600060405180830381855af49150503d8060008114610339576040519150601f19603f3d011682016040523d82523d6000602084013e61033e565b606091505b5090925090506103508683838761035a565b9695505050505050565b606083156103c95782516000036103c2576001600160a01b0385163b6103c25760405162461bcd60e51b815260206004820152601d60248201527f416464726573733a2063616c6c20746f206e6f6e2d636f6e74726163740000006044820152606401610169565b50816103d3565b6103d383836103db565b949350505050565b8151156103eb5781518083602001fd5b8060405162461bcd60e51b81526004016101699190610552565b80516001600160a01b038116811461041c57600080fd5b919050565b634e487b7160e01b600052604160045260246000fd5b60005b8381101561045257818101518382015260200161043a565b50506000910152565b6000806040838503121561046e57600080fd5b61047783610405565b60208401519092506001600160401b038082111561049457600080fd5b818501915085601f8301126104a857600080fd5b8151818111156104ba576104ba610421565b604051601f8201601f19908116603f011681019083821181831017156104e2576104e2610421565b816040528281528860208487010111156104fb57600080fd5b61050c836020830160208801610437565b80955050505050509250929050565b60006020828403121561052d57600080fd5b6102c882610405565b60008251610548818460208701610437565b9190910192915050565b6020815260008251806020840152610571816040850160208701610437565b601f01601f19169190910160400192915050565b610345806105946000396000f3fe60806040523661001357610011610017565b005b6100115b610027610022610067565b610100565b565b606061004e83836040518060600160405280602781526020016102e960279139610124565b9392505050565b6001600160a01b03163b151590565b90565b600061009a7fa3f0ad74e5423aebfd80d3ef4346578335a9a72aeaee59ff6cb3582b35133d50546001600160a01b031690565b6001600160a01b0316635c60da1b6040518163ffffffff1660e01b8152600401602060405180830381865afa1580156100d7573d6000803e3d6000fd5b505050506040513d601f19601f820116820180604052508101906100fb919061024c565b905090565b3660008037600080366000845af43d6000803e80801561011f573d6000f35b3d6000fd5b6060600080856001600160a01b0316856040516101419190610299565b600060405180830381855af49150503d806000811461017c576040519150601f19603f3d011682016040523d82523d6000602084013e610181565b606091505b50915091506101928683838761019c565b9695505050505050565b60608315610210578251600003610209576001600160a01b0385163b6102095760405162461bcd60e51b815260206004820152601d60248201527f416464726573733a2063616c6c20746f206e6f6e2d636f6e747261637400000060448201526064015b60405180910390fd5b508161021a565b61021a8383610222565b949350505050565b8151156102325781518083602001fd5b8060405162461bcd60e51b815260040161020091906102b5565b60006020828403121561025e57600080fd5b81516001600160a01b038116811461004e57600080fd5b60005b83811015610290578181015183820152602001610278565b50506000910152565b600082516102ab818460208701610275565b9190910192915050565b60208152600082518060208401526102d4816040850160208701610275565b601f01601f1916919091016040019291505056fe416464726573733a206c6f772d6c6576656c2064656c65676174652063616c6c206661696c6564a264697066735822122095f579d2f59ef5d88216d4c4dee04587af3c0e201bcfa18abd24a093012a0a9764736f6c63430008110033416464726573733a206c6f772d6c6576656c2064656c65676174652063616c6c206661696c6564a2646970667358221220454ef03c45e1221b6126ed6c6ec34acb297bd2c2f30b5a84a692a440dc505a9664736f6c63430008110033","linkReferences":{}},"methodIdentifiers":{"deploySmartVault((string,string,string,uint256,address[],uint256,int8,address,address,address[],uint8[],(string,address,bytes2,uint256,uint8[],bytes[])[][],uint8[],uint16,uint16,uint16,bool))":"6fc3f5d5","deploySmartVaultDeterministically((string,string,string,uint256,address[],uint256,int8,address,address,address[],uint8[],(string,address,bytes2,uint256,uint8[],bytes[])[][],uint8[],uint16,uint16,uint16,bool),bytes32)":"cd7b1c7a","implementation()":"5c60da1b","owner()":"8da5cb5b","predictDeterministicAddress((string,string,string,uint256,address[],uint256,int8,address,address,address[],uint8[],(string,address,bytes2,uint256,uint8[],bytes[])[][],uint8[],uint16,uint16,uint16,bool),bytes32)":"cced1c51","renounceOwnership()":"715018a6","transferOwnership(address)":"f2fde38b","upgradeTo(address)":"3659cfe6"},"id":96}